{
  "_format": "hh-sol-artifact-1",
  "contractName": "Xance",
  "sourceName": "contracts/Xance.sol",
  "abi": [
    {
      "inputs": [
        {
          "internalType": "address",
          "name": "_houseWallet",
          "type": "address"
        },
        {
          "internalType": "address",
          "name": "usdAddress",
          "type": "address"
        },
        {
          "internalType": "uint256",
          "name": "_expiresAt",
          "type": "uint256"
        }
      ],
      "stateMutability": "nonpayable",
      "type": "constructor"
    },
    {
      "anonymous": false,
      "inputs": [
        {
          "indexed": true,
          "internalType": "address",
          "name": "buyer",
          "type": "address"
        },
        {
          "indexed": false,
          "internalType": "uint8[]",
          "name": "numbers",
          "type": "uint8[]"
        },
        {
          "indexed": false,
          "internalType": "uint8[]",
          "name": "qtys",
          "type": "uint8[]"
        }
      ],
      "name": "Buy",
      "type": "event"
    },
    {
      "anonymous": false,
      "inputs": [
        {
          "indexed": true,
          "internalType": "address",
          "name": "previousOwner",
          "type": "address"
        },
        {
          "indexed": true,
          "internalType": "address",
          "name": "newOwner",
          "type": "address"
        }
      ],
      "name": "OwnershipTransferred",
      "type": "event"
    },
    {
      "inputs": [
        {
          "internalType": "uint8[]",
          "name": "numbers",
          "type": "uint8[]"
        },
        {
          "internalType": "uint8[]",
          "name": "qtys",
          "type": "uint8[]"
        }
      ],
      "name": "buy",
      "outputs": [],
      "stateMutability": "nonpayable",
      "type": "function"
    },
    {
      "inputs": [],
      "name": "claim",
      "outputs": [],
      "stateMutability": "nonpayable",
      "type": "function"
    },
    {
      "inputs": [],
      "name": "expiresAt",
      "outputs": [
        {
          "internalType": "uint256",
          "name": "",
          "type": "uint256"
        }
      ],
      "stateMutability": "view",
      "type": "function"
    },
    {
      "inputs": [],
      "name": "getAllSoldNumbers",
      "outputs": [
        {
          "components": [
            {
              "internalType": "uint8",
              "name": "number",
              "type": "uint8"
            },
            {
              "internalType": "address",
              "name": "addr",
              "type": "address"
            },
            {
              "internalType": "uint8",
              "name": "qty",
              "type": "uint8"
            }
          ],
          "internalType": "struct Xance.BuyInfo[]",
          "name": "",
          "type": "tuple[]"
        }
      ],
      "stateMutability": "view",
      "type": "function"
    },
    {
      "inputs": [
        {
          "internalType": "uint8",
          "name": "number",
          "type": "uint8"
        }
      ],
      "name": "getSoldNumber",
      "outputs": [
        {
          "internalType": "uint256",
          "name": "",
          "type": "uint256"
        }
      ],
      "stateMutability": "view",
      "type": "function"
    },
    {
      "inputs": [
        {
          "internalType": "uint8",
          "name": "number",
          "type": "uint8"
        }
      ],
      "name": "getSoldNumbers",
      "outputs": [
        {
          "components": [
            {
              "internalType": "uint8",
              "name": "number",
              "type": "uint8"
            },
            {
              "internalType": "address",
              "name": "addr",
              "type": "address"
            },
            {
              "internalType": "uint8",
              "name": "qty",
              "type": "uint8"
            }
          ],
          "internalType": "struct Xance.BuyInfo[]",
          "name": "",
          "type": "tuple[]"
        }
      ],
      "stateMutability": "view",
      "type": "function"
    },
    {
      "inputs": [
        {
          "internalType": "uint8",
          "name": "number",
          "type": "uint8"
        },
        {
          "internalType": "address",
          "name": "addr",
          "type": "address"
        }
      ],
      "name": "getSoldNumbersByAddress",
      "outputs": [
        {
          "internalType": "uint8",
          "name": "",
          "type": "uint8"
        }
      ],
      "stateMutability": "view",
      "type": "function"
    },
    {
      "inputs": [],
      "name": "getWinners",
      "outputs": [
        {
          "components": [
            {
              "internalType": "uint8",
              "name": "number",
              "type": "uint8"
            },
            {
              "internalType": "address",
              "name": "addr",
              "type": "address"
            },
            {
              "internalType": "uint8",
              "name": "qty",
              "type": "uint8"
            }
          ],
          "internalType": "struct Xance.BuyInfo[]",
          "name": "",
          "type": "tuple[]"
        }
      ],
      "stateMutability": "view",
      "type": "function"
    },
    {
      "inputs": [],
      "name": "isActive",
      "outputs": [
        {
          "internalType": "bool",
          "name": "",
          "type": "bool"
        }
      ],
      "stateMutability": "view",
      "type": "function"
    },
    {
      "inputs": [],
      "name": "maxInventoryNumber",
      "outputs": [
        {
          "internalType": "uint8",
          "name": "",
          "type": "uint8"
        }
      ],
      "stateMutability": "view",
      "type": "function"
    },
    {
      "inputs": [],
      "name": "owner",
      "outputs": [
        {
          "internalType": "address",
          "name": "",
          "type": "address"
        }
      ],
      "stateMutability": "view",
      "type": "function"
    },
    {
      "inputs": [],
      "name": "renounceOwnership",
      "outputs": [],
      "stateMutability": "nonpayable",
      "type": "function"
    },
    {
      "inputs": [
        {
          "internalType": "uint16",
          "name": "_firstPrize",
          "type": "uint16"
        }
      ],
      "name": "setFirstPrize",
      "outputs": [],
      "stateMutability": "nonpayable",
      "type": "function"
    },
    {
      "inputs": [],
      "name": "setMaxInventoryNumber",
      "outputs": [],
      "stateMutability": "nonpayable",
      "type": "function"
    },
    {
      "inputs": [
        {
          "internalType": "uint8",
          "name": "",
          "type": "uint8"
        },
        {
          "internalType": "uint256",
          "name": "",
          "type": "uint256"
        }
      ],
      "name": "soldNumbers",
      "outputs": [
        {
          "internalType": "uint8",
          "name": "number",
          "type": "uint8"
        },
        {
          "internalType": "address",
          "name": "addr",
          "type": "address"
        },
        {
          "internalType": "uint8",
          "name": "qty",
          "type": "uint8"
        }
      ],
      "stateMutability": "view",
      "type": "function"
    },
    {
      "inputs": [],
      "name": "totalSold",
      "outputs": [
        {
          "internalType": "uint256",
          "name": "",
          "type": "uint256"
        }
      ],
      "stateMutability": "view",
      "type": "function"
    },
    {
      "inputs": [
        {
          "internalType": "address",
          "name": "newOwner",
          "type": "address"
        }
      ],
      "name": "transferOwnership",
      "outputs": [],
      "stateMutability": "nonpayable",
      "type": "function"
    },
    {
      "inputs": [],
      "name": "usdToken",
      "outputs": [
        {
          "internalType": "contract IERC20",
          "name": "",
          "type": "address"
        }
      ],
      "stateMutability": "view",
      "type": "function"
    },
    {
      "inputs": [],
      "name": "withdraw",
      "outputs": [],
      "stateMutability": "nonpayable",
      "type": "function"
    }
  ],
  "bytecode": "0x60806040526703782dace9d9000060035567c249fdd3277800006004556007805462ff0000191690553480156200003557600080fd5b5060405162001c8438038062001c8483398101604081905262000058916200016d565b620000633362000100565b428111620000c75760405162461bcd60e51b815260206004820152602760248201527f45787069726174696f6e20646174652073686f756c6420626520696e207468656044820152662066757475726560c81b606482015260840160405180910390fd5b600980546001600160a01b039485166001600160a01b0319918216179091556005805493909416921691909117909155600655620001ae565b600080546001600160a01b038381166001600160a01b0319831681178455604051919092169283917f8be0079c531659141344cd1fd0a4f28419497f9722a3daafe3b4186f6b6457e09190a35050565b80516001600160a01b03811681146200016857600080fd5b919050565b6000806000606084860312156200018357600080fd5b6200018e8462000150565b92506200019e6020850162000150565b9150604084015190509250925092565b611ac680620001be6000396000f3fe608060405234801561001057600080fd5b50600436106101115760003560e01c80638da5cb5b116100ad578063b4a48b9f11610071578063b4a48b9f14610234578063df15c37e14610273578063f2fde38b1461027b578063f53908711461028e578063f897a22b1461029b57600080fd5b80638da5cb5b146101ee5780639106d7ba1461020857806392764936146102115780639866b87e14610219578063a1d3528f1461022157600080fd5b806312102e491461011657806322f3e2d41461013f5780633ccfd60b146101625780634b5b406f1461016c5780634e71d92d1461017f5780635b74fdd2146101875780636f5d8125146101b8578063715018a6146101dd5780638622a689146101e5575b600080fd5b61012961012436600461159f565b6102ae565b60405161013691906115c1565b60405180910390f35b6007546101529062010000900460ff1681565b6040519015158152602001610136565b61016a610340565b005b61016a61017a366004611676565b6104aa565b61016a6109d7565b6101aa61019536600461159f565b60ff1660009081526001602052604090205490565b604051908152602001610136565b6101cb6101c63660046116f9565b610bbf565b60405160ff9091168152602001610136565b61016a610c90565b6101aa60065481565b6000546001600160a01b03165b604051610136919061172c565b6101aa60085481565b610129610ca4565b61016a610e5b565b61016a61022f366004611740565b610f13565b610247610242366004611764565b610fbd565b6040805160ff94851681526001600160a01b039093166020840152921691810191909152606001610136565b610129611008565b61016a61028936600461178e565b611160565b6002546101cb9060ff1681565b6005546101fb906001600160a01b031681565b60ff81166000908152600160209081526040808320805482518185028101850190935280835260609492939192909184015b82821015610335576000848152602090819020604080516060810182529185015460ff80821684526001600160a01b0361010083041684860152600160a81b90910416908201528252600190920191016102e0565b505050509050919050565b6103486111d9565b60065442116103725760405162461bcd60e51b8152600401610369906117a9565b60405180910390fd5b600060646008546014610385919061180b565b61038f9190611838565b6009546005549192506103af916001600160a01b03908116911683611233565b6005546040516370a0823160e01b81526000916001600160a01b0316906370a08231906103e090309060040161172c565b602060405180830381865afa1580156103fd573d6000803e3d6000fd5b505050506040513d601f19601f82011682018060405250810190610421919061184c565b9050600061042d611008565b905060005b815181101561048d57600082828151811061044f5761044f611865565b60200260200101516040015160ff1660045461046b919061180b565b9050610477818561187b565b93505080806104859061188e565b915050610432565b506005546104a5906001600160a01b03163384611233565b505050565b60075462010000900460ff166104d25760405162461bcd60e51b8152600401610369906118a7565b8261052a5760405162461bcd60e51b815260206004820152602260248201527f596f752073686f756c6420627579206174206c65617374206f6e65206e756d6260448201526132b960f11b6064820152608401610369565b8281146105945760405162461bcd60e51b815260206004820152603260248201527f4e756d6265727320616e64207175616e7469746965732073686f756c642068616044820152710ecca40e8d0ca40e6c2daca40d8cadccee8d60731b6064820152608401610369565b60065442106105f55760405162461bcd60e51b815260206004820152602760248201527f596f752063616e277420627579206166746572207468652065787069726174696044820152666f6e206461746560c81b6064820152608401610369565b6000805b60ff811685111561088857600086868360ff1681811061061b5761061b611865565b9050602002016020810190610630919061159f565b905060008061063e836102ae565b905060005b815181101561068c5781818151811061065e5761065e611865565b60200260200101516040015160ff168361067891906118de565b9250806106848161188e565b915050610643565b5060025460ff9081169083908990899088168181106106ad576106ad611865565b90506020020160208101906106c2919061159f565b60ff166106cf91906118de565b106107115760405162461bcd60e51b8152602060048201526012602482015271139d5b58995c881a5cc81cdbdb19081bdd5d60721b6044820152606401610369565b60648360ff161061076e5760405162461bcd60e51b815260206004820152602160248201527f4e756d6265722073686f756c64206265206265747765656e203020616e6420396044820152603960f81b6064820152608401610369565b86868560ff1681811061078357610783611865565b9050602002016020810190610798919061159f565b6107a290866118f1565b9450600160008460ff1660ff16815260200190815260200160002060405180606001604052808560ff168152602001336001600160a01b0316815260200189898860ff168181106107f5576107f5611865565b905060200201602081019061080a919061159f565b60ff90811690915282546001810184556000938452602093849020835191018054948401516040909401518316600160a81b0260ff60a81b196001600160a01b03909516610100026001600160a81b0319909616929093169190911793909317919091161790555082915061088090508161190a565b9150506105f9565b5060006003548260ff1661089c919061180b565b6005546040516370a0823160e01b815291925082916001600160a01b03909116906370a08231906108d190339060040161172c565b602060405180830381865afa1580156108ee573d6000803e3d6000fd5b505050506040513d601f19601f82011682018060405250810190610912919061184c565b10156109605760405162461bcd60e51b815260206004820181905260248201527f596f7520646f6e2774206861766520656e6f7567682055534420746f6b656e736044820152606401610369565b600554610978906001600160a01b0316333084611296565b806008600082825461098a91906118de565b909155505060405133907f1df5f4aa84db20d465d2637e322d002eee7de231b93167cc8092f39009eec2db906109c790899089908990899061196a565b60405180910390a2505050505050565b60065442116109f85760405162461bcd60e51b8152600401610369906117a9565b60075462010000900460ff16610a205760405162461bcd60e51b8152600401610369906118a7565b60075461ffff16610a435760405162461bcd60e51b815260040161036990611991565b600754600090610a599060649061ffff166119c4565b90506000805b60ff8316600090815260016020526040902054811015610ae35760ff83166000908152600160205260409020805433919083908110610aa057610aa0611865565b60009182526020909120015461010090046001600160a01b031603610ad157610aca8160016118de565b9150610ae3565b80610adb8161188e565b915050610a5f565b506001811015610b355760405162461bcd60e51b815260206004820152601f60248201527f596f7520646f6e2774206861766520612077696e6e696e67206e756d626572006044820152606401610369565b6000610b418333610bbf565b60ff169050600081600454610b56919061180b565b600554909150610b70906001600160a01b03163383611233565b60ff8416600090815260016020819052604090912090610b90908561187b565b81548110610ba057610ba0611865565b600091825260209091200180546001600160b01b031916905550505050565b600080805b60ff8516600090815260016020526040902054811015610c865760ff8516600090815260016020526040902080546001600160a01b038616919083908110610c0e57610c0e611865565b60009182526020909120015461010090046001600160a01b031603610c745760ff85166000908152600160205260409020805482908110610c5157610c51611865565b600091825260209091200154610c7190600160a81b900460ff16836118f1565b91505b80610c7e8161188e565b915050610bc4565b5090505b92915050565b610c986111d9565b610ca260006112d4565b565b60606000805b60648160ff161015610ce75760ff8116600090815260016020526040902054610cd390836118de565b915080610cdf8161190a565b915050610caa565b5060008167ffffffffffffffff811115610d0357610d036119e5565b604051908082528060200260200182016040528015610d4e57816020015b6040805160608101825260008082526020808301829052928201528252600019909201910181610d215790505b5090506000805b60648160ff161015610e525760ff811660009081526001602052604090205415610e405760005b60ff8216600090815260016020526040902054811015610e3e5760ff82166000908152600160205260409020805482908110610dba57610dba611865565b600091825260209182902060408051606081018252919092015460ff80821683526001600160a01b0361010083041694830194909452600160a81b9004909216908201528451859085908110610e1257610e12611865565b60200260200101819052508280610e289061188e565b9350508080610e369061188e565b915050610d7c565b505b80610e4a8161190a565b915050610d55565b50909392505050565b610e636111d9565b6005546040516370a0823160e01b81526000916001600160a01b0316906370a0823190610e9490309060040161172c565b602060405180830381865afa158015610eb1573d6000803e3d6000fd5b505050506040513d601f19601f82011682018060405250810190610ed5919061184c565b9050610ee967c249fdd32778000082611838565b6002805460ff9290921660ff19909216919091179055506007805462ff0000191662010000179055565b610f1b6111d9565b6006544211610f3c5760405162461bcd60e51b8152600401610369906117a9565b61270f8161ffff1610610fa55760405162461bcd60e51b815260206004820152602b60248201527f57696e6e696e67206e756d6265722073686f756c64206265206265747765656e60448201526a203020616e64203939393960a81b6064820152608401610369565b6007805461ffff191661ffff92909216919091179055565b60016020528160005260406000208181548110610fd957600080fd5b60009182526020909120015460ff80821693506001600160a01b036101008304169250600160a81b9091041683565b6060600654421161102b5760405162461bcd60e51b8152600401610369906117a9565b60075461ffff1661104e5760405162461bcd60e51b815260040161036990611991565b6007546000906110649060649061ffff166119c4565b905060006110818260ff1660009081526001602052604090205490565b9050600081116110d35760405162461bcd60e51b815260206004820152601b60248201527f57696e6e696e67206e756d62657220776173206e6f7420736f6c6400000000006044820152606401610369565b60ff8216600090815260016020908152604080832080548251818502810185019093528083529193909284015b82821015611155576000848152602090819020604080516060810182529185015460ff80821684526001600160a01b0361010083041684860152600160a81b9091041690820152825260019092019101611100565b505050509250505090565b6111686111d9565b6001600160a01b0381166111cd5760405162461bcd60e51b815260206004820152602660248201527f4f776e61626c653a206e6577206f776e657220697320746865207a65726f206160448201526564647265737360d01b6064820152608401610369565b6111d6816112d4565b50565b6000546001600160a01b03163314610ca25760405162461bcd60e51b815260206004820181905260248201527f4f776e61626c653a2063616c6c6572206973206e6f7420746865206f776e65726044820152606401610369565b6040516001600160a01b0383166024820152604481018290526104a590849063a9059cbb60e01b906064015b60408051601f198184030181529190526020810180516001600160e01b03166001600160e01b031990931692909217909152611324565b6040516001600160a01b03808516602483015283166044820152606481018290526112ce9085906323b872dd60e01b9060840161125f565b50505050565b600080546001600160a01b038381166001600160a01b0319831681178455604051919092169283917f8be0079c531659141344cd1fd0a4f28419497f9722a3daafe3b4186f6b6457e09190a35050565b6000611379826040518060400160405280602081526020017f5361666545524332303a206c6f772d6c6576656c2063616c6c206661696c6564815250856001600160a01b03166113f99092919063ffffffff16565b905080516000148061139a57508080602001905181019061139a91906119fb565b6104a55760405162461bcd60e51b815260206004820152602a60248201527f5361666545524332303a204552433230206f7065726174696f6e20646964206e6044820152691bdd081cdd58d8d9595960b21b6064820152608401610369565b60606114088484600085611410565b949350505050565b6060824710156114715760405162461bcd60e51b815260206004820152602660248201527f416464726573733a20696e73756666696369656e742062616c616e636520666f6044820152651c8818d85b1b60d21b6064820152608401610369565b600080866001600160a01b0316858760405161148d9190611a41565b60006040518083038185875af1925050503d80600081146114ca576040519150601f19603f3d011682016040523d82523d6000602084013e6114cf565b606091505b50915091506114e0878383876114eb565b979650505050505050565b6060831561155a578251600003611553576001600160a01b0385163b6115535760405162461bcd60e51b815260206004820152601d60248201527f416464726573733a2063616c6c20746f206e6f6e2d636f6e74726163740000006044820152606401610369565b5081611408565b611408838381511561156f5781518083602001fd5b8060405162461bcd60e51b81526004016103699190611a5d565b803560ff8116811461159a57600080fd5b919050565b6000602082840312156115b157600080fd5b6115ba82611589565b9392505050565b602080825282518282018190526000919060409081850190868401855b8281101561161d578151805160ff9081168652878201516001600160a01b031688870152908601511685850152606090930192908501906001016115de565b5091979650505050505050565b60008083601f84011261163c57600080fd5b50813567ffffffffffffffff81111561165457600080fd5b6020830191508360208260051b850101111561166f57600080fd5b9250929050565b6000806000806040858703121561168c57600080fd5b843567ffffffffffffffff808211156116a457600080fd5b6116b08883890161162a565b909650945060208701359150808211156116c957600080fd5b506116d68782880161162a565b95989497509550505050565b80356001600160a01b038116811461159a57600080fd5b6000806040838503121561170c57600080fd5b61171583611589565b9150611723602084016116e2565b90509250929050565b6001600160a01b0391909116815260200190565b60006020828403121561175257600080fd5b813561ffff811681146115ba57600080fd5b6000806040838503121561177757600080fd5b61178083611589565b946020939093013593505050565b6000602082840312156117a057600080fd5b6115ba826116e2565b6020808252602c908201527f596f752063616e277420646f2074686973206265666f7265207468652065787060408201526b69726174696f6e206461746560a01b606082015260800190565b634e487b7160e01b600052601160045260246000fd5b8082028115828204841417610c8a57610c8a6117f5565b634e487b7160e01b600052601260045260246000fd5b60008261184757611847611822565b500490565b60006020828403121561185e57600080fd5b5051919050565b634e487b7160e01b600052603260045260246000fd5b81810381811115610c8a57610c8a6117f5565b6000600182016118a0576118a06117f5565b5060010190565b6020808252601e908201527f4c6f746572727920636f6e7472616374206973206e6f74206163746976650000604082015260600190565b80820180821115610c8a57610c8a6117f5565b60ff8181168382160190811115610c8a57610c8a6117f5565b600060ff821660ff8103611920576119206117f5565b60010192915050565b8183526000602080850194508260005b8581101561195f5760ff61194c83611589565b1687529582019590820190600101611939565b509495945050505050565b60408152600061197e604083018688611929565b82810360208401526114e0818587611929565b60208082526019908201527815da5b9b9a5b99c81b9d5b58995c881a5cc81b9bdd081cd95d603a1b604082015260600190565b600061ffff808416806119d9576119d9611822565b92169190910692915050565b634e487b7160e01b600052604160045260246000fd5b600060208284031215611a0d57600080fd5b815180151581146115ba57600080fd5b60005b83811015611a38578181015183820152602001611a20565b50506000910152565b60008251611a53818460208701611a1d565b9190910192915050565b6020815260008251806020840152611a7c816040850160208701611a1d565b601f01601f1916919091016040019291505056fea26469706673582212207de9762e82574bfab8f8a3fb87d1c7c456a1180dd8820bec2130e0ff358845a864736f6c63430008130033",
  "linkReferences": {},
  "deployedLinkReferences": {}
}