{
  "_format": "hh-sol-artifact-1",
  "contractName": "Xance",
  "sourceName": "contracts/Xance.sol",
  "abi": [
    {
      "inputs": [
        {
          "internalType": "address",
          "name": "_houseWallet",
          "type": "address"
        },
        {
          "internalType": "address",
          "name": "usdAddress",
          "type": "address"
        },
        {
          "internalType": "uint256",
          "name": "_expiresAt",
          "type": "uint256"
        }
      ],
      "stateMutability": "nonpayable",
      "type": "constructor"
    },
    {
      "anonymous": false,
      "inputs": [
        {
          "indexed": true,
          "internalType": "address",
          "name": "buyer",
          "type": "address"
        },
        {
          "indexed": false,
          "internalType": "uint8[]",
          "name": "numbers",
          "type": "uint8[]"
        },
        {
          "indexed": false,
          "internalType": "uint8[]",
          "name": "qtys",
          "type": "uint8[]"
        }
      ],
      "name": "Buy",
      "type": "event"
    },
    {
      "anonymous": false,
      "inputs": [
        {
          "indexed": true,
          "internalType": "address",
          "name": "previousOwner",
          "type": "address"
        },
        {
          "indexed": true,
          "internalType": "address",
          "name": "newOwner",
          "type": "address"
        }
      ],
      "name": "OwnershipTransferred",
      "type": "event"
    },
    {
      "inputs": [
        {
          "internalType": "uint8[]",
          "name": "numbers",
          "type": "uint8[]"
        },
        {
          "internalType": "uint8[]",
          "name": "qtys",
          "type": "uint8[]"
        }
      ],
      "name": "buy",
      "outputs": [],
      "stateMutability": "nonpayable",
      "type": "function"
    },
    {
      "inputs": [],
      "name": "claim",
      "outputs": [],
      "stateMutability": "nonpayable",
      "type": "function"
    },
    {
      "inputs": [],
      "name": "expiresAt",
      "outputs": [
        {
          "internalType": "uint256",
          "name": "",
          "type": "uint256"
        }
      ],
      "stateMutability": "view",
      "type": "function"
    },
    {
      "inputs": [],
      "name": "getAllPrizeNumbers",
      "outputs": [
        {
          "components": [
            {
              "internalType": "uint8",
              "name": "number",
              "type": "uint8"
            },
            {
              "internalType": "address",
              "name": "addr",
              "type": "address"
            },
            {
              "internalType": "uint8",
              "name": "qty",
              "type": "uint8"
            }
          ],
          "internalType": "struct Xance.BuyInfo[][]",
          "name": "",
          "type": "tuple[][]"
        }
      ],
      "stateMutability": "view",
      "type": "function"
    },
    {
      "inputs": [],
      "name": "getAllSoldNumbers",
      "outputs": [
        {
          "components": [
            {
              "internalType": "uint8",
              "name": "number",
              "type": "uint8"
            },
            {
              "internalType": "address",
              "name": "addr",
              "type": "address"
            },
            {
              "internalType": "uint8",
              "name": "qty",
              "type": "uint8"
            }
          ],
          "internalType": "struct Xance.BuyInfo[]",
          "name": "",
          "type": "tuple[]"
        }
      ],
      "stateMutability": "view",
      "type": "function"
    },
    {
      "inputs": [
        {
          "internalType": "uint8",
          "name": "prizeType",
          "type": "uint8"
        }
      ],
      "name": "getPrizeWinners",
      "outputs": [
        {
          "components": [
            {
              "internalType": "uint8",
              "name": "number",
              "type": "uint8"
            },
            {
              "internalType": "address",
              "name": "addr",
              "type": "address"
            },
            {
              "internalType": "uint8",
              "name": "qty",
              "type": "uint8"
            }
          ],
          "internalType": "struct Xance.BuyInfo[]",
          "name": "",
          "type": "tuple[]"
        }
      ],
      "stateMutability": "view",
      "type": "function"
    },
    {
      "inputs": [
        {
          "internalType": "uint8",
          "name": "number",
          "type": "uint8"
        }
      ],
      "name": "getSoldNumber",
      "outputs": [
        {
          "internalType": "uint256",
          "name": "",
          "type": "uint256"
        }
      ],
      "stateMutability": "view",
      "type": "function"
    },
    {
      "inputs": [
        {
          "internalType": "uint8",
          "name": "number",
          "type": "uint8"
        }
      ],
      "name": "getSoldNumbers",
      "outputs": [
        {
          "components": [
            {
              "internalType": "uint8",
              "name": "number",
              "type": "uint8"
            },
            {
              "internalType": "address",
              "name": "addr",
              "type": "address"
            },
            {
              "internalType": "uint8",
              "name": "qty",
              "type": "uint8"
            }
          ],
          "internalType": "struct Xance.BuyInfo[]",
          "name": "",
          "type": "tuple[]"
        }
      ],
      "stateMutability": "view",
      "type": "function"
    },
    {
      "inputs": [
        {
          "internalType": "uint8",
          "name": "number",
          "type": "uint8"
        },
        {
          "internalType": "address",
          "name": "addr",
          "type": "address"
        }
      ],
      "name": "getSoldNumbersByAddress",
      "outputs": [
        {
          "internalType": "uint8",
          "name": "",
          "type": "uint8"
        }
      ],
      "stateMutability": "view",
      "type": "function"
    },
    {
      "inputs": [],
      "name": "isActive",
      "outputs": [
        {
          "internalType": "bool",
          "name": "",
          "type": "bool"
        }
      ],
      "stateMutability": "view",
      "type": "function"
    },
    {
      "inputs": [],
      "name": "maxInventoryNumber",
      "outputs": [
        {
          "internalType": "uint8",
          "name": "",
          "type": "uint8"
        }
      ],
      "stateMutability": "view",
      "type": "function"
    },
    {
      "inputs": [],
      "name": "owner",
      "outputs": [
        {
          "internalType": "address",
          "name": "",
          "type": "address"
        }
      ],
      "stateMutability": "view",
      "type": "function"
    },
    {
      "inputs": [
        {
          "internalType": "uint8",
          "name": "",
          "type": "uint8"
        }
      ],
      "name": "prizeAmounts",
      "outputs": [
        {
          "internalType": "uint256",
          "name": "",
          "type": "uint256"
        }
      ],
      "stateMutability": "view",
      "type": "function"
    },
    {
      "inputs": [
        {
          "internalType": "uint8",
          "name": "",
          "type": "uint8"
        }
      ],
      "name": "prizes",
      "outputs": [
        {
          "internalType": "uint16",
          "name": "",
          "type": "uint16"
        }
      ],
      "stateMutability": "view",
      "type": "function"
    },
    {
      "inputs": [],
      "name": "renounceOwnership",
      "outputs": [],
      "stateMutability": "nonpayable",
      "type": "function"
    },
    {
      "inputs": [],
      "name": "setMaxInventoryNumber",
      "outputs": [],
      "stateMutability": "nonpayable",
      "type": "function"
    },
    {
      "inputs": [
        {
          "internalType": "uint16[]",
          "name": "_prizeNumbers",
          "type": "uint16[]"
        }
      ],
      "name": "setPrizeNumbers",
      "outputs": [],
      "stateMutability": "nonpayable",
      "type": "function"
    },
    {
      "inputs": [
        {
          "internalType": "uint8",
          "name": "",
          "type": "uint8"
        },
        {
          "internalType": "uint256",
          "name": "",
          "type": "uint256"
        }
      ],
      "name": "soldNumbers",
      "outputs": [
        {
          "internalType": "uint8",
          "name": "number",
          "type": "uint8"
        },
        {
          "internalType": "address",
          "name": "addr",
          "type": "address"
        },
        {
          "internalType": "uint8",
          "name": "qty",
          "type": "uint8"
        }
      ],
      "stateMutability": "view",
      "type": "function"
    },
    {
      "inputs": [],
      "name": "totalSold",
      "outputs": [
        {
          "internalType": "uint256",
          "name": "",
          "type": "uint256"
        }
      ],
      "stateMutability": "view",
      "type": "function"
    },
    {
      "inputs": [
        {
          "internalType": "address",
          "name": "newOwner",
          "type": "address"
        }
      ],
      "name": "transferOwnership",
      "outputs": [],
      "stateMutability": "nonpayable",
      "type": "function"
    },
    {
      "inputs": [],
      "name": "usdToken",
      "outputs": [
        {
          "internalType": "contract IERC20",
          "name": "",
          "type": "address"
        }
      ],
      "stateMutability": "view",
      "type": "function"
    },
    {
      "inputs": [],
      "name": "withdraw",
      "outputs": [],
      "stateMutability": "nonpayable",
      "type": "function"
    }
  ],
  "bytecode": "0x60806040526703782dace9d90000600355680107ad8f556c6c00006004556009805460ff191690553480156200003457600080fd5b506040516200251f3803806200251f8339810160408190526200005791620001f7565b62000062336200018a565b428111620000c65760405162461bcd60e51b815260206004820152602760248201527f45787069726174696f6e20646174652073686f756c6420626520696e207468656044820152662066757475726560c81b606482015260840160405180910390fd5b600560205267c249fdd3277800007f1471eb6eb2c5e789fc3de43f8ce62938c7d1836ec861730447e2ada8fd81017b556729a2241af62c00007f89832631fb3c3307a103ba2c84ab569c64d6182a18893dcd163f0f1c2090733a556003600052671bc16d674ec800007fa9bc9a3a348c357ba16b37005d7e6b3236198c0e939f4af8c5f19b8deeb8ebc055600b80546001600160a01b039485166001600160a01b031991821617909155600780549390941692169190911790915560085562000238565b600080546001600160a01b038381166001600160a01b0319831681178455604051919092169283917f8be0079c531659141344cd1fd0a4f28419497f9722a3daafe3b4186f6b6457e09190a35050565b80516001600160a01b0381168114620001f257600080fd5b919050565b6000806000606084860312156200020d57600080fd5b6200021884620001da565b92506200022860208501620001da565b9150604084015190509250925092565b6122d780620002486000396000f3fe608060405234801561001057600080fd5b50600436106101425760003560e01c80638622a689116100b8578063b4a48b9f1161007c578063b4a48b9f14610294578063ccd5842c146102d3578063e1cc41cf146102e6578063f2fde38b1461031d578063f539087114610330578063f897a22b1461033d57600080fd5b80638622a689146102585780638da5cb5b146102615780639106d7ba1461027b57806392764936146102845780639866b87e1461028c57600080fd5b80634b5b406f1161010a5780634b5b406f146101bf5780634e71d92d146101d25780635b74fdd2146101da5780636f5d81251461020b578063715018a61461023057806379074fe41461023857600080fd5b806312102e491461014757806322f3e2d41461017057806326648b551461018d5780632b4cce1c146101a25780633ccfd60b146101b5575b600080fd5b61015a610155366004611bef565b610350565b6040516101679190611c37565b60405180910390f35b60095461017d9060ff1681565b6040519015158152602001610167565b6101956103e2565b6040516101679190611c80565b61015a6101b0366004611bef565b6104dc565b6101bd610715565b005b6101bd6101cd366004611d5b565b6109db565b6101bd610edd565b6101fd6101e8366004611bef565b60ff1660009081526001602052604090205490565b604051908152602001610167565b61021e610219366004611dde565b61110b565b60405160ff9091168152602001610167565b6101bd6111dc565b6101fd610246366004611bef565b60056020526000908152604090205481565b6101fd60085481565b6000546001600160a01b03165b6040516101679190611e11565b6101fd600a5481565b61015a6111f0565b6101bd6113a7565b6102a76102a2366004611e25565b611457565b6040805160ff94851681526001600160a01b039093166020840152921691810191909152606001610167565b6101bd6102e1366004611e77565b6114a2565b61030a6102f4366004611bef565b60066020526000908152604090205461ffff1681565b60405161ffff9091168152602001610167565b6101bd61032b366004611f3c565b611684565b60025461021e9060ff1681565b60075461026e906001600160a01b031681565b60ff81166000908152600160209081526040808320805482518185028101850190935280835260609492939192909184015b828210156103d7576000848152602090819020604080516060810182529185015460ff80821684526001600160a01b0361010083041684860152600160a81b9091041690820152825260019092019101610382565b505050509050919050565b6060600854421161040e5760405162461bcd60e51b815260040161040590611f57565b60405180910390fd5b600160005260066020526000805160206122628339815191525461ffff166104485760405162461bcd60e51b815260040161040590611fa3565b60408051600380825260808201909252600091816020015b606081526020019060019003908161046057905050905060015b60038160ff16116104d6576000610490826104dc565b905080516000036104a157506104c4565b80838360ff16815181106104b7576104b7611fd6565b6020026020010181905250505b806104ce81612002565b91505061047a565b50905090565b606060085442116104ff5760405162461bcd60e51b815260040161040590611f57565b600160005260066020526000805160206122628339815191525461ffff166105395760405162461bcd60e51b815260040161040590611fa3565b60008260ff166001036105775760016000526006602052600080516020612262833981519152546105709060649061ffff16612037565b905061061e565b8260ff166002036105ac5760026000526006602052600080516020612282833981519152546105709060649061ffff16612037565b8260ff166003036105e15760036000526006602052600080516020612242833981519152546105709060649061ffff16612037565b60405162461bcd60e51b8152602060048201526012602482015271496e76616c6964207072697a65207479706560701b6044820152606401610405565b60ff81166000908152600160205260408120549081900361068557604080516000808252602082019092529061067c565b604080516060810182526000808252602080830182905292820152825260001990920191018161064f5790505b50949350505050565b60ff8216600090815260016020908152604080832080548251818502810185019093528083529193909284015b82821015610707576000848152602090819020604080516060810182529185015460ff80821684526001600160a01b0361010083041684860152600160a81b90910416908201528252600190920191016106b2565b50505050925050505b919050565b61071d6116fd565b600854421161073e5760405162461bcd60e51b815260040161040590611f57565b60006064600a54601e6107519190612058565b61075b919061206f565b600b5460075491925061077b916001600160a01b03908116911683611757565b6007546040516370a0823160e01b81526000916001600160a01b0316906370a08231906107ac903090600401611e11565b602060405180830381865afa1580156107c9573d6000803e3d6000fd5b505050506040513d601f19601f820116820180604052508101906107ed9190612083565b905060006107fb60016104dc565b905060005b815181101561088857600082828151811061081d5761081d611fd6565b60209081029190910181015160400151600160005260059091527f1471eb6eb2c5e789fc3de43f8ce62938c7d1836ec861730447e2ada8fd81017b546108669160ff1690612058565b9050610872818561209c565b9350508080610880906120af565b915050610800565b50600061089560026104dc565b905060005b81518110156109225760008282815181106108b7576108b7611fd6565b60209081029190910181015160400151600260005260059091527f89832631fb3c3307a103ba2c84ab569c64d6182a18893dcd163f0f1c2090733a546109009160ff1690612058565b905061090c818661209c565b945050808061091a906120af565b91505061089a565b50600061092f60036104dc565b905060005b81518110156109bc57600082828151811061095157610951611fd6565b60209081029190910181015160400151600360005260059091527fa9bc9a3a348c357ba16b37005d7e6b3236198c0e939f4af8c5f19b8deeb8ebc05461099a9160ff1690612058565b90506109a6818761209c565b95505080806109b4906120af565b915050610934565b506007546109d4906001600160a01b03163386611757565b5050505050565b60095460ff166109fd5760405162461bcd60e51b8152600401610405906120c8565b82610a555760405162461bcd60e51b815260206004820152602260248201527f596f752073686f756c6420627579206174206c65617374206f6e65206e756d6260448201526132b960f11b6064820152608401610405565b828114610abf5760405162461bcd60e51b815260206004820152603260248201527f4e756d6265727320616e64207175616e7469746965732073686f756c642068616044820152710ecca40e8d0ca40e6c2daca40d8cadccee8d60731b6064820152608401610405565b6008544210610b205760405162461bcd60e51b815260206004820152602760248201527f596f752063616e277420627579206166746572207468652065787069726174696044820152666f6e206461746560c81b6064820152608401610405565b6000805b84811015610da7576000868683818110610b4057610b40611fd6565b9050602002016020810190610b559190611bef565b905060648160ff1610610bb45760405162461bcd60e51b815260206004820152602160248201527f4e756d6265722073686f756c64206265206265747765656e203020616e6420396044820152603960f81b6064820152608401610405565b6000610bbf82610350565b90506000805b8251811015610c0e57828181518110610be057610be0611fd6565b60200260200101516040015160ff1682610bfa91906120ff565b915080610c06816120af565b915050610bc5565b50600081888887818110610c2457610c24611fd6565b9050602002016020810190610c399190611bef565b60ff16610c4691906120ff565b60025490915060ff168110610c925760405162461bcd60e51b8152602060048201526012602482015271139d5b58995c881a5cc81cdbdb19081bdd5d60721b6044820152606401610405565b60ff841660008181526001602090815260409182902082516060810184529384523391840191909152919081018a8a89818110610cd157610cd1611fd6565b9050602002016020810190610ce69190611bef565b60ff90811690915282546001810184556000938452602093849020835191018054948401516040909401518316600160a81b0260ff60a81b196001600160a01b03909516610100026001600160a81b031990961692909316919091179390931791909116179055600354888887818110610d6257610d62611fd6565b9050602002016020810190610d779190611bef565b60ff16610d849190612058565b610d8e90876120ff565b9550505050508080610d9f906120af565b915050610b24565b506007546040516370a0823160e01b815282916001600160a01b0316906370a0823190610dd8903390600401611e11565b602060405180830381865afa158015610df5573d6000803e3d6000fd5b505050506040513d601f19601f82011682018060405250810190610e199190612083565b1015610e675760405162461bcd60e51b815260206004820181905260248201527f596f7520646f6e2774206861766520656e6f7567682055534420746f6b656e736044820152606401610405565b600754610e7f906001600160a01b03163330846117bf565b80600a6000828254610e9191906120ff565b909155505060405133907f1df5f4aa84db20d465d2637e322d002eee7de231b93167cc8092f39009eec2db90610ece908890889088908890612153565b60405180910390a25050505050565b6008544211610efe5760405162461bcd60e51b815260040161040590611f57565b60095460ff16610f205760405162461bcd60e51b8152600401610405906120c8565b600160005260066020526000805160206122628339815191525461ffff16610f8a5760405162461bcd60e51b815260206004820152601b60248201527f57696e6e696e67206e756d6265727320617265206e6f742073657400000000006044820152606401610405565b60016000908152600660205260008051602061226283398151915254610fb69060649061ffff16612037565b6002600090815260066020526000805160206122828339815191525491925090610fe69060649061ffff16612037565b60036000908152600660205260008051602061224283398151915254919250906110169060649061ffff16612037565b90506000611023846117fd565b90506000611030846117fd565b9050600061103d846117fd565b905060008360ff161180611054575060008260ff16115b80611062575060008160ff16115b6110ae5760405162461bcd60e51b815260206004820152601f60248201527f596f7520646f6e2774206861766520612077696e6e696e67206e756d626572006044820152606401610405565b60006110bc60038387611892565b6110c860028589611892565b6110d46001878b611892565b6110de91906120ff565b6110e891906120ff565b600754909150611102906001600160a01b03163383611757565b50505050505050565b600080805b60ff85166000908152600160205260409020548110156111d25760ff8516600090815260016020526040902080546001600160a01b03861691908390811061115a5761115a611fd6565b60009182526020909120015461010090046001600160a01b0316036111c05760ff8516600090815260016020526040902080548290811061119d5761119d611fd6565b6000918252602090912001546111bd90600160a81b900460ff168361217a565b91505b806111ca816120af565b915050611110565b5090505b92915050565b6111e46116fd565b6111ee6000611929565b565b60606000805b60648160ff1610156112335760ff811660009081526001602052604090205461121f90836120ff565b91508061122b81612002565b9150506111f6565b5060008167ffffffffffffffff81111561124f5761124f611e4f565b60405190808252806020026020018201604052801561129a57816020015b604080516060810182526000808252602080830182905292820152825260001990920191018161126d5790505b5090506000805b60648160ff16101561139e5760ff81166000908152600160205260409020541561138c5760005b60ff821660009081526001602052604090205481101561138a5760ff8216600090815260016020526040902080548290811061130657611306611fd6565b600091825260209182902060408051606081018252919092015460ff80821683526001600160a01b0361010083041694830194909452600160a81b900490921690820152845185908590811061135e5761135e611fd6565b60200260200101819052508280611374906120af565b9350508080611382906120af565b9150506112c8565b505b8061139681612002565b9150506112a1565b50909392505050565b6113af6116fd565b6007546040516370a0823160e01b81526000916001600160a01b0316906370a08231906113e0903090600401611e11565b602060405180830381865afa1580156113fd573d6000803e3d6000fd5b505050506040513d601f19601f820116820180604052508101906114219190612083565b905061143567c249fdd3277800008261206f565b6002805460ff9290921660ff1992831617905560098054909116600117905550565b6001602052816000526040600020818154811061147357600080fd5b60009182526020909120015460ff80821693506001600160a01b036101008304169250600160a81b9091041683565b6114aa6116fd565b60085442116114cb5760405162461bcd60e51b815260040161040590611f57565b80516003146115265760405162461bcd60e51b815260206004820152602160248201527f54686572652073686f756c6420626520332077696e6e696e67206e756d6265726044820152607360f81b6064820152608401610405565b60005b60038110156115c65761270f82828151811061154757611547611fd6565b602002602001015161ffff16106115b45760405162461bcd60e51b815260206004820152602b60248201527f57696e6e696e67206e756d6265722073686f756c64206265206265747765656e60448201526a203020616e64203939393960a81b6064820152608401610405565b806115be816120af565b915050611529565b50806000815181106115da576115da611fd6565b6020026020010151816001815181106115f5576115f5611fd6565b60200260200101518260028151811061161057611610611fd6565b60209081029190910181015160069091526003600052600080516020612242833981519152805461ffff1990811661ffff9384161790915560008051602061228283398151915280548216938316939093179092556000805160206122628339815191528054909216921691909117905550565b61168c6116fd565b6001600160a01b0381166116f15760405162461bcd60e51b815260206004820152602660248201527f4f776e61626c653a206e6577206f776e657220697320746865207a65726f206160448201526564647265737360d01b6064820152608401610405565b6116fa81611929565b50565b6000546001600160a01b031633146111ee5760405162461bcd60e51b815260206004820181905260248201527f4f776e61626c653a2063616c6c6572206973206e6f7420746865206f776e65726044820152606401610405565b6040516001600160a01b0383166024820152604481018290526117ba90849063a9059cbb60e01b906064015b60408051601f198184030181529190526020810180516001600160e01b03166001600160e01b031990931692909217909152611979565b505050565b6040516001600160a01b03808516602483015283166044820152606481018290526117f79085906323b872dd60e01b90608401611783565b50505050565b6000805b60ff80841660009081526001602052604090205490821610156118895760ff808416600090815260016020526040902080543392841690811061184657611846611fd6565b60009182526020909120015461010090046001600160a01b0316036118775761187081600161217a565b9392505050565b8061188181612002565b915050611801565b50600092915050565b60008260ff166000036118a757506000611870565b60006118b3833361110b565b60ff8681166000908152600560209081526040808320548885168452600192839052922093909216935091906118e99087612193565b60ff16815481106118fc576118fc611fd6565b600091825260209091200180546001600160b01b031916905561191f8282612058565b9695505050505050565b600080546001600160a01b038381166001600160a01b0319831681178455604051919092169283917f8be0079c531659141344cd1fd0a4f28419497f9722a3daafe3b4186f6b6457e09190a35050565b60006119ce826040518060400160405280602081526020017f5361666545524332303a206c6f772d6c6576656c2063616c6c206661696c6564815250856001600160a01b0316611a4e9092919063ffffffff16565b90508051600014806119ef5750808060200190518101906119ef91906121ac565b6117ba5760405162461bcd60e51b815260206004820152602a60248201527f5361666545524332303a204552433230206f7065726174696f6e20646964206e6044820152691bdd081cdd58d8d9595960b21b6064820152608401610405565b6060611a5d8484600085611a65565b949350505050565b606082471015611ac65760405162461bcd60e51b815260206004820152602660248201527f416464726573733a20696e73756666696369656e742062616c616e636520666f6044820152651c8818d85b1b60d21b6064820152608401610405565b600080866001600160a01b03168587604051611ae291906121f2565b60006040518083038185875af1925050503d8060008114611b1f576040519150601f19603f3d011682016040523d82523d6000602084013e611b24565b606091505b5091509150611b3587838387611b40565b979650505050505050565b60608315611baf578251600003611ba8576001600160a01b0385163b611ba85760405162461bcd60e51b815260206004820152601d60248201527f416464726573733a2063616c6c20746f206e6f6e2d636f6e74726163740000006044820152606401610405565b5081611a5d565b611a5d8383815115611bc45781518083602001fd5b8060405162461bcd60e51b8152600401610405919061220e565b803560ff8116811461071057600080fd5b600060208284031215611c0157600080fd5b61187082611bde565b805160ff90811683526020808301516001600160a01b031690840152604091820151169082015260600190565b6020808252825182820181905260009190848201906040850190845b81811015611c7457611c66838551611c0a565b938501939250600101611c53565b50909695505050505050565b6000602080830181845280855180835260408601915060408160051b87010192508387016000805b83811015611d0157888603603f19018552825180518088529088019088880190845b81811015611ceb57611cdd838551611c0a565b938b01939250600101611cca565b5090975050509386019391860191600101611ca8565b509398975050505050505050565b60008083601f840112611d2157600080fd5b50813567ffffffffffffffff811115611d3957600080fd5b6020830191508360208260051b8501011115611d5457600080fd5b9250929050565b60008060008060408587031215611d7157600080fd5b843567ffffffffffffffff80821115611d8957600080fd5b611d9588838901611d0f565b90965094506020870135915080821115611dae57600080fd5b50611dbb87828801611d0f565b95989497509550505050565b80356001600160a01b038116811461071057600080fd5b60008060408385031215611df157600080fd5b611dfa83611bde565b9150611e0860208401611dc7565b90509250929050565b6001600160a01b0391909116815260200190565b60008060408385031215611e3857600080fd5b611e4183611bde565b946020939093013593505050565b634e487b7160e01b600052604160045260246000fd5b803561ffff8116811461071057600080fd5b60006020808385031215611e8a57600080fd5b823567ffffffffffffffff80821115611ea257600080fd5b818501915085601f830112611eb657600080fd5b813581811115611ec857611ec8611e4f565b8060051b604051601f19603f83011681018181108582111715611eed57611eed611e4f565b604052918252848201925083810185019188831115611f0b57600080fd5b938501935b82851015611f3057611f2185611e65565b84529385019392850192611f10565b98975050505050505050565b600060208284031215611f4e57600080fd5b61187082611dc7565b6020808252602c908201527f596f752063616e277420646f2074686973206265666f7265207468652065787060408201526b69726174696f6e206461746560a01b606082015260800190565b60208082526019908201527815da5b9b9a5b99c81b9d5b58995c881a5cc81b9bdd081cd95d603a1b604082015260600190565b634e487b7160e01b600052603260045260246000fd5b634e487b7160e01b600052601160045260246000fd5b600060ff821660ff810361201857612018611fec565b60010192915050565b634e487b7160e01b600052601260045260246000fd5b600061ffff8084168061204c5761204c612021565b92169190910692915050565b80820281158282048414176111d6576111d6611fec565b60008261207e5761207e612021565b500490565b60006020828403121561209557600080fd5b5051919050565b818103818111156111d6576111d6611fec565b6000600182016120c1576120c1611fec565b5060010190565b6020808252601e908201527f4c6f746572727920636f6e7472616374206973206e6f74206163746976650000604082015260600190565b808201808211156111d6576111d6611fec565b8183526000602080850194508260005b858110156121485760ff61213583611bde565b1687529582019590820190600101612122565b509495945050505050565b604081526000612167604083018688612112565b8281036020840152611b35818587612112565b60ff81811683821601908111156111d6576111d6611fec565b60ff82811682821603908111156111d6576111d6611fec565b6000602082840312156121be57600080fd5b8151801515811461187057600080fd5b60005b838110156121e95781810151838201526020016121d1565b50506000910152565b600082516122048184602087016121ce565b9190910192915050565b602081526000825180602084015261222d8160408501602087016121ce565b601f01601f1916919091016040019291505056fe75f96ab15d697e93042dc45b5c896c4b27e89bb6eaf39475c5c371cb2513f7d23e5fec24aa4dc4e5aee2e025e51e1392c72a2500577559fae9665c6d52bd6a318819ef417987f8ae7a81f42cdfb18815282fe989326fbff903d13cf0e03ace29a26469706673582212204912a1cf42be363849d79dab9604129e52a2b350e4a5a5edafdfbea4d6c5b0d964736f6c63430008130033",
  "linkReferences": {},
  "deployedLinkReferences": {}
}